:04000000ECEF05F02C
:10060000003F065B4F666D7D077F6F777C395E79B3
:1006100071000BC00FF0106A116A0A340F3601E343
:1006200010800F50146E0EC00FF0106A116A0D3456
:100630000F3601E310800F50136E1450D8B40BD056
:100640001350145CD8B00ED01450000813240F6E51
:10065000180E0F6407D00CC009F00DC00AF00EC0D0
:100660000BF012001350D8B40BD01450135CD8B058
:100670000ED01350000814240F6E180E0F6407D00C
:1006800009C009F00AC00AF00BC00BF01200060EF8
:10069000126E0BBE128E0EBE128C0A8EFF0E091643
:1006A000FF0E0A16000E0B160D8EFF0E0C16FF0E17
:1006B0000D16000E0E161350145CD8B01BD0D89037
:1006C0000C360D360E36130614501318D8B40DD050
:1006D000120612C00FF0070E0F16D8B406D0EFD7CF
:1006E000D8900B320A320932142A13501418D8B495
:1006F0001FD0F6D71450135CD8B01AD0D890093652
:100700000A360B36140614501318D8B40DD012063E
:1007100012C00FF0070E0F16D8B406D0EFD7D8903E
:100720000E320D320C32132A13501418D8A4F7D7F6
:1007300012AE0CD0FF0E091AFF0E0A1AFF0E0B1A8A
:10074000010E0926000E0A22000E0B2212AC0CD05C
:10075000FF0E0C1AFF0E0D1AFF0E0E1A010E0C26BC
:10076000000E0D22000E0E22000E126E09500C26F5
:100770000A500D220B500E220EAE0ED0FF0E0C1A98
:10078000FF0E0D1AFF0E0E1A010E0C26000E0D2282
:10079000000E0E22010E126E0CC001F00DC002F010
:1007A0000EC003F014C004F012C005F09AEC04F07F
:1007B00001C009F002C00AF003C00BF01200000EE5
:1007C000196E000E186E000E946E000E826EF6EC1E
:1007D00005F0184A192A000E0D6E000E046E140E54
:1007E000036E18C001F019C002F08DEC05F001C0D5
:1007F00008F002C009F0000E0B6E0A0E0A6EB6EC8D
:1008000005F00850D7EC05F0010E0D6E000E046ED9
:10081000C80E036E18C001F019C002F08DEC05F08F
:1008200001C008F002C009F0000E0B6E0A0E0A6E3D
:10083000B6EC05F00850D7EC05F0020E0D6E070E71
:10084000046ED00E036E18C001F019C002F08DECDA
:1008500005F001C008F002C009F0000E0B6E0A0E90
:100860000A6EB6EC05F00850D7EC05F0030E0D6EDD
:100870002E0E046EE00E036E18C001F019C002F0D7
:100880008DEC05F001C008F002C009F0000E0B6EFF
:100890000A0E0A6EB6EC05F00850D7EC05F0D00E43
:1008A000181804E1070E1918D8B48268A00E181899
:1008B00006E10F0E1918D8A402D0000E826EF1ECDA
:1008C00004F0000E156E000E166E000E176E15C0A9
:1008D00001F016C002F017C003F0000E046EF00E17
:1008E000056E410E066E45EC05F0D8B072D715C006
:1008F00009F016C00AF017C00BF0000E0C6E800E47
:100900000D6E3F0E0E6E09EC03F009C015F00AC023
:1009100016F00BC017F015C001F016C002F017C09A
:1009200003F0000E046EF00E056E410E066E45ECEF
:1009300005F0DBD70450D8B405D0015002100310E5
:10094000D8A40CD0000E016E000E026E000E036ED5
:100950001200042AD890033202320132000E011430
:10096000066E000E0214076EFE0E0314086E06508B
:1009700007100810D8B40CD0ECD7042A010E0126B9
:10098000000E0222000E0322D890033202320132FE
:10099000000E0114066E000E0214076EFF0E031403
:1009A000086E065007100810D8B406D0E6D7040623
:1009B000D89001360236033602BE03D0020E046020
:1009C000F6D704A0029ED8900432045003120550BA
:1009D000D8A4038E01C001F002C002F003C003F0EE
:1009E0001200000E806E000E846E000E836E3FD0EB
:1009F0001D50010D010EF324F66E060EF420F76E65
:100A00000800F5CF83FF808A010E1E6E12001C5075
:100A1000010D010EF324F66E060EF420F76E0800A9
:100A2000F5CF83FF8084020E1E6E12001B50010D55
:100A3000010EF324F66E060EF420F76E0800F5CFD3
:100A400083FF8480030E1E6E12001A50010D010EEA
:100A5000F324F66E060EF420F76E0800F5CF83FF40
:100A60008484000E1E6E1200000E1E6E12001E50B8
:100A7000000AD8B4BDD7010AD8B4C9D7030AD8B47C
:100A8000D5D7010AD8B4E1D7EFD703AE16D001C04D
:100A900007F002C008F003C009F0071E081E091E77
:100AA000072A000E08220922000E0724016E000EFC
:100AB0000820026E800E0920036E06AE16D004C018
:100AC00007F005C008F006C009F0071E081E091E41
:100AD000072A000E08220922000E0724046E000EC9
:100AE0000820056E800E0920066E000E011A000E09
:100AF000021A800E031A000E041A000E051A800E48
:100B0000061A0450015C0550025806500358D8B02C
:100B100002D0D8901200D8801200000E066E000E8F
:100B2000056E03500410D8B41CD0010E076E04D01B
:100B3000D89003360436072A04AEFAD7D890053683
:100B400006360350015C04500258D8A005D003506B
:100B5000015E0450025A0580D89004320332072EF9
:100B6000EDD705C001F006C002F012000A500B10CC
:100B7000D8B418D0010E0C6E04D0D8900A360B36BB
:100B80000C2A0BAEFAD70A50085C0B500958D8A0B3
:100B900004D00A50085E0B50095AD8900B320A3222
:100BA0000C2EF1D708C008F009C009F012000E6E33
:100BB0000D50D8B40EC01DF00D04D8B40EC01CF0FA
:100BC000020E0D18D8B40EC01BF0030E0D18D8A4D9
:100BD00012000EC01AF012001E6A1D6A1C6A1B6AFF
:100BE0001A6A000EF86E0001DFEF03F09294929AF9
:0E0BF000969096940E0EC16E000E956E120039
:020000040020DA
:08000000FFFFFFFFFFFFFFFF00
:020000040030CA
:0E000000FF021F00FF8381FF0FC00FE00F40C3
:00000001FF
